:020000040800F2
:10000000081500200901000851190008C512000850
:100010005515000811070008753C00080000000095
:10002000000000000000000000000000091F0008A0
:10003000D50E000800000000B91B00083924000894
:100040002301000823010008230100082301000800
:1000500023010008230100082301000823010008F0
:1000600023010008230100082301000823010008E0
:1000700023010008230100082301000823010008D0
:1000800023010008230100082301000823010008C0
:1000900023010008230100082301000823010008B0
:1000A00023010008230100082301000823010008A0
:1000B000A1240008F92400082301000823010008F6
:1000C0002301000823010008230100082301000880
:1000D00023010008CD3700082D39000891390008A8
:1000E000230100082301000823010008D52500088A
:1000F00001260008DFF80CD000F052FA0048004753
:10010000A94900080815002006488047064800470E
:10011000FEE7FEE7FEE7FEE7FEE7FEE7FEE7FEE7B7
:10012000FEE7FEE74D240008F500000840EA010361
:100130009B0703D009E008C9121F08C0042AFAD29D
:1001400003E011F8013B00F8013B521EF9D2704761
:10015000D2B201E000F8012B491EFBD27047002209
:10016000F6E710B513460A4604461946FFF7F0FFB6
:10017000204610BD421C10F8011B0029FBD1801A3B
:10018000704730B505460020034600E05B1C9342F3
:1001900005D2EC5CC85C201A01D1002CF6D130BD30
:1001A00030B50B46014600202022012409E021FA47
:1001B00002F59D4205D303FA02F5491B04FA02F544
:1001C0002844151EA2F10102F1DC30BD2DE9F05FDB
:1001D0000546002092469B468846064681464024B6
:1001E0001BE0284641464746224600F0FAF95346AE
:1001F0005A46C01A914110D311461846224600F0C3
:10020000E1F92D1A67EB01084F4622460120002133
:1002100000F0D8F917EB00094E41201EA4F10104AB
:10022000DFDC484631462A464346BDE8F09F2DE9CB
:10023000FE4F804681EA0300C00F0C46009021F07B
:10024000004123F00045B8EB0200A94105D2404629
:10025000214690461C460B46024623F000401043C0
:1002600047D0270DC7F30A00C3F30A510290401A82
:10027000019040286BDAC3F3130040F4801B009810
:10028000924620B10023D2EB030A63EB0B0B0198DB
:100290005946C0F14002504600F094F906460D461A
:1002A00050465946019A00F0ACF910EB0800614144
:1002B000002487EA115284EAE7731A4340D0009A77
:1002C00062B3019A012A4FEA075215DC001B61EB69
:1002D00002014FF0004202EA0752CDE90042001C41
:1002E00041F5801132462B4600F0ACF903B0BDE871
:1002F000F08F40462146F9E7001B61EB0201001C2C
:1003000041F5801300185B412018A2F5001747EB58
:10031000030140EAD570B6196D4111E06D084FEA4E
:10032000360645EAC0754FEA0752001B61EB020131
:10033000001C41F5801149084FEA30000019514175
:1003400032462B4603B0BDE8F04F00F06CB9009880
:10035000012240000023D0EB020263EBE07300981F
:1003600021464FEAE074B8EB000061EB0401E9E7D5
:1003700083F000435BE781F0004158E72DE9FE4F31
:1003800081EA030404F0004421F0004100944FF09E
:10039000000B23F0004350EA01045ED052EA03044C
:1003A0005BD0C3F30A54C1F30A552C44A4F2F334CE
:1003B0000194A0FB0254C1F3130141F48011C3F373
:1003C000130343F4801301FB024400FB034E840A31
:1003D000970A44EA815447EA8357A4FB07680295C9
:1003E0008D0A05FB07854FEA932C04FB0C54270567
:1003F000029D4FEA065847EA1637B5EB08056EEB43
:10040000070C870E920E47EA811742EA8312A7FB78
:100410000201B6EB0B0164EB00042B0D43EA0C3335
:100420005E1844EB1C50DA465146E7FB0201C5F367
:1004300013044FEA0B3343EA14534FEA0432019C8E
:1004400043EA0603A4F10C040294009CCDE900B435
:1004500000F0F8F803B0BDE8F08F00200146F9E79E
:100460002DE9F04D81EA030404F0004B21F0004532
:1004700014464FF0000A23F0004150EA050220D054
:1004800054EA01021DD0C5F30A570246C5F313030F
:10049000C1F31300C1F30A5640F4801543F48013EE
:1004A000A7EB0608101BD64608F2FD3873EB0500D3
:1004B00002D308F1010801E092185B41B8F1000F86
:1004C00003DA00200146BDE8F08D00204FF48011D2
:1004D000064684460EE0171B73EB050705D3121B77
:1004E00063EB050306434CEA010C49084FEA300070
:1004F00092185B4150EA0107EDD152EA030012D095
:1005000082EA040083EA0501084305D0101BAB41D1
:1005100006D20122002306E000224FF0004302E051
:100520006FF0010253101AEB06004CEB085110EB70
:100530000A0041EB0B01BDE8F04D00F074B8C1F3C7
:100540000A52C1F3130140F2FF3341F480119A4281
:1005500002DA00200146704740F233439A42A2F289
:10056000334202DC524200F03CB800F02BB80000ED
:1005700030B5041E71F1000404DB4FF0004440422A
:1005800064EB0101141E73F1000405DB1C464FF0FF
:100590000043524263EB0403994208BF904230BDCE
:1005A000064C074D06E0E06840F0010394E80700C0
:1005B00098471034AC42F6D3FFF7A0FD9C4A0008E0
:1005C000BC4A0008202A04DB203A00FA02F100208D
:1005D00070479140C2F1200320FA03F31943904081
:1005E0007047202A04DB203A21FA02F000217047EC
:1005F00021FA02F3D040C2F120029140084319468B
:100600007047202A06DBCB17203A41FA02F043EA72
:10061000E07306E041FA02F3D040C2F120029140BB
:1006200008431946704710B5141E73F1000408DA28
:10063000401C41F1000192185B411A4301D120F0A6
:10064000010010BD2DE9F04D92469B4611B1B1FA63
:1006500081F202E0B0FA80F220329046FFF7B2FF5A
:1006600004460F4640EA0A0041EA0B0153465A4647
:10067000084313D0114653EA010019D0C8F14002D3
:100680005046FFF7AEFF05460E46504659464246D5
:10069000FFF798FF084305D0012004E020463946C3
:1006A000BDE8F08D0020054346EAE0762C43374351
:1006B0000A986305E40AA0EB08000022FD0A44EA58
:1006C00047540A3002D500200146E9E70105101918
:1006D0006941DDE9084500196941BDE8F04DA2E72F
:1006E0000121014802F094BD4128000830B50346BD
:1006F000002002466FF02F0407E09D5C00EB8000B5
:1007000004EB4000521C2844D2B28A42F5D330BDDB
:100710004FF4E13003F002F8044D05A003F02EFB86
:100720002C460220401CA042FCD3F6E7FFFF2F001E
:100730004275734661756C745F48616E646C657276
:100740000D0A000030B5C3B00020ADF808013748ED
:1007500042AB6A460088801E81B2354803F060FAD9
:10076000BDF808116846491E00F07EF8BDF8081172
:100770006D46694411F8011C88423CD12D4C6560DE
:10078000BDF8000004F021F961680880D1F802008A
:1007900004F00FF96168C1F80200B1F8070004F035
:1007A00014F9616821F8070F488804F00EF96168B0
:1007B000A1F809000D3082B2BDF80801824204D0D0
:1007C0001DA004F00DF943B030BD401EADF8080186
:1007D0009DE80D0021AC84E80D00B1F809201AB1A4
:1007E00024A803A9FFF7A2FCBDF80801C1B221A803
:1007F00001F018F9E7E7002405E0295D13A004F0F3
:10080000EFF8641CA4B2BDF808018442F5D30EA031
:1008100004F0E6F8BDF808116846491E00F024F817
:1008200001460CA004F0DCF8CDE700004E000020EB
:10083000CD00002000000020205061636B204C653B
:100840006E677468204572720D0A000025303258B8
:100850002000000020435243204572726F72203AFC
:10086000253032580D0A000010B500231A4602E068
:10087000845C521C23448A42FAD3D8B210BD884209
:1008800001D3401A7047C9430844401C704770B5F3
:1008900004464FF6FF7000234AF201050EE014F8FB
:1008A000012B50400022C6074FEA500000D068409C
:1008B000521CD2B2082AF6D35B1CDBB28B42EED3B9
:1008C00070BD3EB50546042202A900F053FB9DF819
:1008D00009109DF80A209DF8080001EB02218DF80F
:1008E00000008CB2ADF801409DF80B108DF803109C
:1008F000552807D12146281D00F0F8FA9DF803106D
:10090000814201D000203EBD0CB120463EBD0120F9
:100910003EBD000010B54FF4C8710448FFF71FFC3E
:10092000034800218180017010BD0000CC00002030
:100930004A00002010B54FF4C8710448FFF70FFCBF
:1009400003480021C180417010BD00005C020020FE
:100950004A00002010B54FF496610448FFF7FFFBF2
:10096000034800210181817010BD0000EC030020CC
:100970004A0000202DE9F041204F3846FFF7A1FF43
:100980001F4E204DA6F10C0490B10C223146384682
:1009900000F0F0FAAE603068206071686160B268A3
:1009A000A260C5E90312BDE8F04117A004F018B831
:1009B000552020700820A4F8010000206060A0608D
:1009C0000821201DFFF750FF0D49E0700C220C3963
:1009D000384600F0E1FA18A004F002F80C220849A9
:1009E000384600F0C7FAAE6030682060706860601A
:1009F000B168A160C5E90301BDE8F081C000080845
:100A0000C00000200C0000200D0A204E6F77204807
:100A10006F72697A6F6E74616C506C7573653A258C
:100A2000642C20566572746963616C506C757365D3
:100A30003A25640D0A00000020546865206669723A
:100A4000737420706F776572206F6E20416E676CD3
:100A5000652072657365740D0A00000010B54FF4CF
:100A6000165002F0E5FE0121034802F0D1FBBDE87B
:100A70001040FFF75FBF00000D31000810B500F017
:100A800063FCFFF777FF0121044802F0C1FB01225C
:100A9000BDE810401146024801F058BEF130000890
:100AA0000004004010B504464FF4004000F088FBFD
:100AB000042801D10021216010BD000070B5054659
:100AC0004FF400460C46304600F07AFB04280AD169
:100AD0000548016821F4807101602C603046BDE852
:100AE000704000F06DBB70BD043C024002480168DC
:100AF00041F0010101607047043C024070B50546B9
:100B00004FF400460C46304600F05AFB042817D13B
:100B10002CB12C703046BDE8704000F051BB25F080
:100B200003063468A807C10EFF208840844330467E
:100B3000FFF7B8FF21463046BDE87040FFF7BEBF63
:100B400070BD70B505464FF400460C46304600F0C7
:100B500037FB042805D12C603046BDE8704000F01A
:100B60002FBB70BD05480068C00705D00348044985
:100B7000083001600349016070470000043C0240F6
:100B8000EFCDAB890504030210B501218CB0080636
:100B900001F014F8134C204600F0A4F8124800901D
:100BA00012480021CDE901014FF4C870CDE90301DD
:100BB0008020CDE905014FF44050CDE908100791A0
:100BC0000A916946204600F013F90121204600F001
:100BD0004FF8054801224021001F02F015FF0CB01C
:100BE00010BD00005860024004380140CC000020D5
:100BF00010B501218CB0080600F0E0FF134C204630
:100C000000F070F81248009012480021CDE901016F
:100C10004FF4C870CDE903018020CDE905014FF400
:100C20004050CDE9081007910A916946204600F02E
:100C3000DFF80121204600F01BF805480122402181
:100C4000001F02F0E1FE0CB010BD00006C6002401D
:100C5000044400405C020020C10002D40249486004
:100C60007047024908607047006002400464024017
:100C70000029016802D041F0010102E04FF6FE7246
:100C8000114001607047000010B501218CB00806CA
:100C900000F094FF104C204600F024F80F4800901C
:100CA0000F48019000211020CDE902018020CDE9FC
:100CB00004108001CDE90810069107910A91694658
:100CC000204600F095F8054801228021001F02F01F
:100CD0009BFE0CB010BD000044600240043801408F
:100CE000F008002001684FF6FE72114001600021FB
:100CF000016041608160C1603149314A08399042E8
:100D000003D1486840F00F0006E02D4A14329042AB
:100D100004D1486840F0F00048607047284A283203
:100D2000904203D1486840F47060F5E7244A3C32B1
:100D3000904203D1486840F47040EDE7204A5032B9
:100D4000904203D1486840F47020E5E71C4A6432C1
:100D5000904203D1486840F47000DDE7184A7832C9
:100D6000904203D1486840F07060D5E7154A111FE2
:100D7000904203D1086840F00F0006E0114A143297
:100D8000904204D1086840F0F000086070470D4AB6
:100D90002832904203D1086840F47060F5E7094AB0
:100DA0003C32904203D1086840F47040EDE7054AB8
:100DB00050329042EAD1086840F47020E5E7000024
:100DC0000860024008640240406880B2704700003A
:100DD00001460020CA0001D4034A00E0034A126819
:100DE0000A4200D0012070470060024000640240C7
:100DF00030B5036847F6F07293430C6A8A68224361
:100E0000D1E904452C4322438C692243CC69224317
:100E10004C6A22438C6A22431A430260CA684260C9
:100E20000A6882604968C16030BD41607047000057
:100E300010B501218CB0080600F0C0FE104C204611
:100E4000FFF750FF0F4800900F480190002110203D
:100E5000CDE902018020CDE904108001CDE9081020
:100E6000069107910A9169462046FFF7C1FF0548A0
:100E700001228021001F02F0C7FD0CB010BD000050
:100E80008060024004440040500A0020104A0021C3
:100E900052F8213083420AD10D4B0020103342F822
:100EA000210043F82100103343F8210002E0491CDF
:100EB0000429EDD35FF0000052F82010002905D17D
:100EC000401C0428F8D3084602F036BA70470000E8
:100ED000BC080020704700000348012101804FF446
:100EE0007A714180704700003000002030B5002446
:100EF000A1B00D46802905D909A003F071FD00209D
:100F000021B030BDAAB2694600F034F8002069462D
:100F100002E00A5C401C1444A842FAD3E0B2EFE7B6
:100F200020436865636B204C656E6774682045726A
:100F3000720D0A002DE9F041054672B6FFF712FE68
:100F400000240B4F4CF25036AD01304600F038F91A
:100F50000428FAD105EB84003844FFF7A3FD641C94
:100F6000E4B2102CF1D3FFF7C1FD62B6BDE8F08109
:100F70000000080804E000BF10F8013B01F8013B45
:100F8000521E92B2F8D2704701E008C808C1521E42
:100F900092B2FAD2704700002DE9F04114460D4696
:100FA000064672B6FFF7DEFD4CF2503711E03846C8
:100FB00000F006F90428FAD129783046FFF79EFDA3
:100FC000042802D006A003F00BFD641E6D1CA4B221
:100FD000761C002CEBD1FFF789FD62B6BDE8F081ED
:100FE0006572720D0A0000002DE9F04114460D46AD
:100FF000064672B6FFF7B6FD4CF2503711E03846A0
:1010000000F0DEF80428FAD130462968FFF799FD90
:10101000042802D006A003F0E3FC641E2D1DA4B238
:10102000361D002CEBD1FFF761FD62B6BDE8F08103
:101030006572720D0A0000002DE9F0410446407807
:10104000062807D0032878D100F024F9BDE8F04144
:1010500002F0A0BDE0783A4F44F24B6808286CD209
:10106000DFE800F06B040F1A25303A4435A003F096
:10107000B7FCE07802F064FD4046BDE8F04100F0C6
:10108000A5BB32A003F0ACFCE07802F059FD40466D
:10109000BDE8F04100F0D4BA2EA003F0A1FCE07846
:1010A00002F04EFD3846BDE8F04100F01DBB2BA01C
:1010B00003F096FCE07802F043FD3846BDE8F041CD
:1010C00000F046BB28A003F08BFCE07802F038FD6E
:1010D000BDE8F04100F070BB25A003F081FCE07892
:1010E00002F02EFDBDE8F04100F04EBA60792179A2
:1010F00000EB0125E079A17900EB01263246294673
:101100001DA003F06DFC4FF4C370454340F2311055
:101110004643BD4200D93D46464500D94646324683
:10112000294619A003F05CFC3146284600F0BCFAC1
:10113000E078BDE8F04102F003BDBDE8F0810000B9
:10114000F48201002055700D0A00000020446F77E2
:101150006E0D0A00204C6566740D0A002052696706
:1011600068740D0A000000002053746F700D0A00AF
:10117000204175746F0D0A0020416E676C653A203E
:1011800025642025640D0A0020506C7573653A2093
:1011900025642025640D0A00084904200A68D20746
:1011A00001D0012070470A68D20501D5022070479E
:1011B000096811F4F05FFAD003207047183C024030
:1011C00008B5034604208DF80000FFF7E5FF8DF811
:1011D000000004E0FFF7E0FF8DF800005B1E9DF8C3
:1011E0000000012801D013B104E0002BF2D105204A
:1011F0008DF800009DF8000008BD0000F0B5002348
:1012000001244FF0030E00BF0D6804FA03F21540ED
:10121000954222D106685D000EFA05FC0F7926EA98
:101220000C06AF40374307600E79012E01D0022E25
:101230000CD186684F7926EA0C06AF4037438760A9
:10124000868896438A799A4032438280C668CA79F2
:1012500026EA0C06AA403243C2605B1C102BD3D393
:10126000F0BD4B07DB0E9A40C90810B500EB8100BA
:10127000016A0F249C40A1430162016A114301628B
:1012800010BD4183704701837047828A4A40828241
:101290007047000001480078704700000C000020F3
:1012A0000148C068704700000C0000200148006938
:1012B000704700000C000020014880687047000063
:1012C000580000204FF4E13002F028FA0E2000F020
:1012D00041FE00F0FDFF054D05A002F04FFD2C463C
:1012E0000220401CA042FCD3F6E70000FFFF2F00C5
:1012F000486172644661756C745F48616E646C65C8
:10130000720D0A0002494CF6CC400860704700009C
:101310000030004002494AF6AA20086070470000E9
:101320000030004001494860704700000030004034
:1013300001498860704700000030004001490860A2
:1013400070470000003000402DE9FC4101258DF878
:10135000045000244FF2C0308DF806402F4F00900B
:101360008DF8074003268DF8056069463846FFF77B
:1013700045FF8DF804508DF806408DF80740702029
:10138000274C00908DF8056069462046FFF736FF30
:1013900010212046FFF777FF20212046FFF773FF3B
:1013A00040212046FFF76FFFA41521463846FFF77E
:1013B0006AFFA50129463846FFF765FF502003F074
:1013C000CDFA21463846FFF75CFF29463846FFF73D
:1013D00058FF502003F0C2FA21463846FFF753FF6A
:1013E00029463846FFF74FFF21463846FFF74BFFA7
:1013F00029463846FFF747FF61003846FFF743FFAD
:10140000E1013846FFF73FFF40213846FFF73BFF39
:1014100061013846FFF737FFBDE8FC810004024058
:101420000000024010B504461648016839B9164953
:10143000016016494160164981601649C160611E0C
:1014400003290ED800EB8400002150F8042C084634
:1014500090470C490020103901EB840141F8040C3D
:1014600010BD601F0328FBD80648103000EB840035
:1014700050F8140CFFF70AFD611FBDE8104006A0EC
:1014800003F0AEBAAC080020CD330008593500088F
:10149000ED350008813600085B54696D65725D2D7D
:1014A0003E436F6E7374204B696C6C20536861729D
:1014B0006554696D65723A25640D0A0070B5154D65
:1014C0002846FFF7FEF968B1062213492846FFF7C0
:1014D00051FD1149A1F10E0041600A6882608988BE
:1014E000818170BD0C4C5520A41F02212070022068
:1014F000A4F801000020A080201DFFF7B5F9E070DE
:10150000062221462846FFF747FDBDE8704003A0AC
:1015100003F066BA4002080842000020204C6F67C2
:101520005772697465207468652064656661756CBE
:10153000742076616C756520666F72207468652012
:10154000666972737420706F776572206F6E0D0A12
:10155000000000004FF4E13002F0E0F8044D05A077
:1015600002F00CFC2C460220401CA042FCD3F6E703
:10157000FFFF2F004D656D4D616E6167655F4861CE
:101580006E646C65720D0A0010B5064800F0E0F854
:10159000054901200871BDE810400A21034801F007
:1015A00037BE0000F48201000C000020B1150008D5
:1015B00010B50E4C6078002816D10DA003F010FA7B
:1015C000002020710A2003F0C9F944F24B6000F0BA
:1015D00037F8012020710A21094801F019FEBDE801
:1015E0001040084801F05CBE10BD00000C00002057
:1015F00020546F207468652052696768740D0A0072
:1016000009160008B115000810B5074C60780028CD
:1016100009D106A003F0E4F900202071074801F089
:101620003FFE0520207010BD0C00002020546F20CC
:1016300074686520446F776E0D0A00000916000873
:1016400070B5164C05462079002826D100F056F9D1
:10165000134E80213046FFF716FE71153046FFF716
:1016600010FEB1143046FFF70CFE4FF40041304637
:10167000FFF709FE4FF400513046FFF702FE0A2043
:1016800003F06CF9284600F075FC0121054800F0D4
:10169000D5FF012060700220207070BD0C0000207A
:1016A000000402400004004010B50D4CC4E90501DF
:1016B000E168884204D9A0EB010000F015F807E0CA
:1016C00004D2A1EB000000F043F801E000F016F9AD
:1016D00001202071BDE810400A21024801F098BDA8
:1016E0000C0000203518000870B5164C054620790E
:1016F000002825D100F002F9134E80213046FFF773
:10170000C0FD71153046FFF7BEFDB1143046FFF73E
:10171000BAFD4FF400413046FFF7B3FD402130469B
:10172000FFF7B1FD0A2003F019F9284600F022FC6A
:101730000121064800F082FF012060700320207024
:1017400070BD00000C0000200004024000040040B6
:1017500070B5164C05462079002825D100F0CEF84A
:10176000134E80213046FFF78CFD71153046FFF790
:101770008AFDB1143046FFF786FD4FF40041304634
:10178000FFF77FFD0A2003F0E9F840213046FFF71C
:1017900078FD284600F0EEFB0121064800F04EFFE0
:1017A000012060700420207070BD00000C0000203B
:1017B000000402400004004003484178002901D0A1
:1017C00001218170704700000C00002070B5164C9C
:1017D00006462079002825D100F090F8134D80218D
:1017E0002846FFF750FD69152846FFF74AFDA91462
:1017F0002846FFF746FD4FF400412846FFF743FD1A
:101800004FF400512846FFF73EFD0A2003F0A6F8EA
:10181000304600F0AFFB0121054800F00FFF01202A
:101820006070207070BD00000C00002000040240B9
:101830000004004010B5184C607800282AD117A089
:1018400003F0CEF8002020712169A069884209D9EF
:101850004FF00A0003F082F82169A069401AFFF7EF
:10186000B5FF0CE009D24FF00A0003F077F8A16948
:101870002069401AFFF7E4FE01E000F03FF8012084
:1018800020710A210B4801F0C3FCBDE810400A4852
:1018900001F006BD10BD00000C00002020546F2098
:1018A00074686520486F7220506F736974696F6E39
:1018B0000D0A0000BD1800083518000810B5074CC7
:1018C0006078002809D106A003F08AF80020207172
:1018D000094801F0E5FC0520207010BD0C00002037
:1018E00020546F207468652056657220506F7369AC
:1018F00074696F6E0D0A0000BD18000810B5104C19
:101900000020617800291AD00121A170090606E0A3
:10191000401C884203D30BA003F062F802E0627817
:10192000002AF5D1E07828B10020E070D4E9030165
:1019300002F0F4F9BDE81040142003F00FB810BD18
:101940000C000020204F766572204572720D0A004F
:10195000704738B54FF4A06000F05AF827208DF892
:10196000000001248DF801408DF802408DF80340FD
:10197000684600F01BF826208DF800008DF8014025
:1019800000208DF802008DF80340684600F00EF844
:1019900025208DF800008DF801408DF802408DF86B
:1019A0000340684600F002F838BD000030B50F2251
:1019B000C47801780123FCB1144C246801F1E021C2
:1019C00004F4E064C4F5E064C4F30724C4F104053E
:1019D000E2404478AC408578154025432A0181F8DF
:1019E0000024007800F01F018B404009800000F1C6
:1019F000E020C0F8003130BD01F01F0083404809ED
:101A0000800000F1E020C0F8803130BD0CED00E036
:101A10000249084302490860704700000000FA05C7
:101A20000CED00E02DE9F041C17A3E4EAB3944F2B5
:101A30004B670F2974D2DFE801F066737373730884
:101A40000F171F272F32353B5F0037A002F0C8FF6A
:101A5000BDE8F041FFF7B0BE35A002F0C1FF384647
:101A6000BDE8F041FFF7B2BE33A002F0B9FF38463F
:101A7000BDE8F041FFF7E4BD31A002F0B1FF304610
:101A8000BDE8F041FFF730BE2FA002F0A9FF3046BD
:101A9000BDE8F041FFF75CBE017B2EA004E0017BB6
:101AA0002FA001E0017B31A0BDE8F04102F098BF1A
:101AB000017B427B01EB0225817BC07B01EB002493
:101AC000224629462CA002F08BFF4FF4C3704543F9
:101AD00040F231104443B54200D93546BC4200D9EA
:101AE0003C462246294628A002F07AFF2146284695
:101AF000BDE8F041FFF7D8BD27A002F071FFBDE8B7
:101B0000F041FFF741BD26A002F06AFF294C2046B4
:101B1000FFF75AF90028FAD1BDE8F04100F08EBC79
:101B2000BDE8F081F48201002053746F700D0A004B
:101B300020557055700D0A0020446F776E0D0A0015
:101B4000204C6566740D0A002052696768740D0A9E
:101B50000000000020476F20746F2025640D0A00EC
:101B6000205365742025640D0A0000002044656C34
:101B70002025640D0A00000020416E676C653A2044
:101B800025642025640D0A0020506C7573653A2089
:101B900025642025640D0A00204175746F0D0A002C
:101BA0000D0A20526573657420436D642E2E2E0D30
:101BB0000A0000004460024070470000044A002907
:101BC000116801D0014300E08143116070470000BB
:101BD0001C380240044A0029116801D0014300E08A
:101BE000814311607047000024380240044A0029F4
:101BF000116801D0014300E081431160704700008B
:101C000018380240044A0029116801D0014300E05D
:101C1000814311607047000020380240044A0029C7
:101C2000116801D0014300E081431160704700005A
:101C30001438024030B5254A1168A2F1040411F0AD
:101C40000C034FF4004105D0042B09D0082B09D018
:101C50000C2B09D02368C3F342335B1C994018E076
:101C60001B4916E01B4914E01168136801F4701158
:101C7000194C03F4400304EB91410978012404EB6F
:101C80009353146814F4803F1DD0124C6143B1FB90
:101C9000F3F1016011680F2303EA11110E4B0933B0
:101CA0005C5C0168E14041601468072505EA142482
:101CB0001C5D21FA04F48460126805EAD2229A5C61
:101CC000D140C16030BD024CE0E70000083802405E
:101CD0000024F40000127A0085000020010901EBC5
:101CE000810100F00F0000EB4100C0B2704700001E
:101CF00010B50C460E4909680E4A11400A0CE270F4
:101D0000C1F30423637001F03F03A370C1F34231B8
:101D1000217000280BD11046FFF7E0FFE0706078DB
:101D2000FFF7DCFF6070A078FFF7D8FFA07010BD50
:101D3000042800403FFFFF0010B50C460F4909681A
:101D40000F4A1140C1F305422270C1F306236370AC
:101D500001F07F03A370402303EA1141E1700028E2
:101D60000BD11046FFF7BAFF20706078FFF7B6FF7F
:101D70006070A078FFF7B2FFA07010BD002800408F
:101D80007F7F7F0010B50B4C2046FEF79AFD68B1AF
:101D9000062209492046FFF7EDF80748A0F10E0199
:101DA000486002688A608088888110BD40F2E73010
:101DB00010BD0000400208084200002010B5124C7F
:101DC0002046FEF77EFDC8B10C2210492046FFF7E1
:101DD000D1F80F488168002915D00C4A8260A2F121
:101DE0000C03116819605168596092689A60C0E9E3
:101DF0000312BDE8104007A002F0F2BDBDE810409C
:101E00000EA002F0EDBD10BDC0000808C00000200B
:101E10000C000020486F72697A6F6E74616C506CB0
:101E20007573653A25642C20566572746963616C1C
:101E3000506C7573653A25640D0A00002052656187
:101E40006420416E676C65204572726F72537461D5
:101E50007475730D0A0000002DE9FC47012127204D
:101E6000FFF7ACFE4FF003088DF8058000258DF8D4
:101E700004500226DFF880904FF6FF778DF8076058
:101E8000012400978DF8064069464846FFF7B6F9E9
:101E90008DF805808DF804508DF8076000978DF857
:101EA000064069461548FFF7A9F98DF8055060030B
:101EB0008DF8045000908DF807608DF80640694653
:101EC0000F48FFF79BF98DF804408DF806508DF808
:101ED000074000968DF8054069464846FFF78EF9A1
:101EE00002214846FFF7CDF94CF25031054801F088
:101EF0008FF9BDE8FC8700000000024000040240AA
:101F000000080240D13100087047000010B50446B7
:101F10001A2801D91A2400E0A4B145F25550FFF760
:101F20000DFA0620FFF7FEF9C4EBC40000EB4410E5
:101F30004FF6FF7101EA8000FFF7FAF9FFF7EAF9BF
:101F4000FFF7E0F9BDE810402821014801F060B931
:101F50006F3C0008064AFF2807D0102804D2012150
:101F60008140108801431180704700201080704725
:101F70003400002002490022C1E907027047000036
:101F80000C0000200CB500202D49019000900A683B
:101F900042F480320A604FF4A0430A6802F400322F
:101FA0000092019A521C0192009A12B9019A9A4227
:101FB000F3D10A68920341D50120009021480268BC
:101FC00042F004020260026842F00202026002680B
:101FD00042F0010202601A482430026842F0805246
:101FE0000260C214184802604268D206FCD4144849
:101FF00008300268026002680260026842F480628F
:102000000260026822F47D020260026842F4550216
:1020100002600A6842F080720A600A689201FCD588
:10202000016821F003010160016841F003010160D2
:102030000168C1F381010329FAD10CBD00900CBDE8
:1020400000380240003C0240007000402DE9F041A1
:1020500086B0FFF797FE014656A002F0C1FC0024AF
:10206000594F1E2526464FF4D87800BFB4FBF5F033
:1020700005FB104008B9FFF74DF9039607EBC400C4
:10208000082203A90496FEF775FF9DF810109DF82D
:102090001100C1427ED000EB01209DF80E209DF87A
:1020A0000F100092CDE901109DF80D309DF80C2025
:1020B000214646A002F094FC9DF81300C00702D010
:1020C0004BA002F08DFC9DF81300800702D54CA0B8
:1020D00002F086FC9DF81300400702D54CA002F0E8
:1020E0007FFC9DF81300000702D54DA002F078FC9C
:1020F0009DF81300C00602D54CA002F071FC9DF8BB
:102100001300800602D54CA002F06AFC9DF8130073
:10211000400602D54CA002F063FC9DF813000006B7
:1021200002D54EA002F05CFC9DF81200C00702D060
:102130004DA002F055FC9DF81200800702D54EA07C
:1021400002F04EFC9DF81200400702D54EA002F0AE
:1021500047FC9DF81200000702D54EA002F040FC9B
:102160009DF81200C00602D54DA002F039FC9DF882
:102170001200800602D54DA002F032FC9DF812003C
:10218000400602D54CA002F02BFC9DF81200000680
:1021900004D500E005E04BA002F022FC09A002F00B
:1021A0001FFC641CA4B24445FFF460AF06B0BDE858
:1021B000F081000020506F696E7465722041646484
:1021C000723A25640D0A0000800208082530336445
:1021D0002E282564295B253032643A253032643A52
:1021E000253032645D20566F6C3A25642000000073
:1021F000204E6F204D4539303973207C000000009F
:10220000205765616B205369676E616C207C00000C
:1022100020436F6E736F6C65204F6E207C00000052
:102220002054696D656F7574207C000020537563C0
:1022300063657373207C000020506F7374204661C7
:10224000696C207C00000000204E6F205365727680
:1022500065722041636B207C00000000204E6F20DF
:1022600043617264207C00002050686F746F2046C8
:1022700061696C207C000000204E6F204869333576
:102280003139207C00000000204E69676874207C92
:10229000000000002053656E736F7245727200007B
:1022A00020475053204F4B207C00000020475053C4
:1022B000204661696C207C0020486172644572721E
:1022C000207C000020554E49434F4D207C000000EB
:1022D00000B58FB00EA90020FFF70AFD0DA9002060
:1022E000FFF72AFD9DF83A008DF800009DF83400B4
:1022F0008DF801009DF835008DF802009DF836003C
:102300008DF8030000208DF804008DF805000648C4
:102310000088010A8DF806108DF80700684601F064
:10232000C5FC0FB000BD000034000020F0B50E4623
:10233000074600231AE000BF06EB430116F813001E
:102340004D7802F047FB3038C4B2092C01D9E41FA4
:10235000E4B2284602F03EFB3038C5B2092D01D95F
:10236000ED1FEDB205EB0410F8545B1C9342E3DB68
:10237000F0BD00001FB56846FFF75CFC47F6FF4064
:10238000FEF7AAFDFFF768FDFFF7E3FA4FF4E1302F
:1023900001F0C4F90CA0009902F022FB11A214A1D3
:1023A00016A002F01DFB0520FFF7B0FD01F0B2F909
:1023B000FFF784F801F054F8FEF760FBFEF74EFBE0
:1023C00017A002F00DFB1FBD0D0A20535953434CBB
:1023D0004B5F4672657175656E63793A2025644876
:1023E0007A0D0A0031313A32353A333500000000B7
:1023F0004F63742031382032303139000D0A2050BB
:10240000726F6A656374204275696C6420446174FC
:10241000613A202573202D2025730D0A000000004D
:102420000D0A20436F6E736F6C6520436F6E74727C
:102430006F6C0D0A0000000070470000024901485F
:10244000086070470400FA050CED00E0104810B574
:10245000016841F4807101600D4908310A680D4B33
:102460001A400A6002680C4B1A400260026822F4AB
:1024700080220260086820F47D000860091D0020A9
:102480000860FFF77FFD05494FF00060086010BD50
:10249000003802400CC0FF88FEFFFEEE08ED00E0B1
:1024A0002DE9F04101218C07204600F043F9002876
:1024B0001DD00121204600F0BEF80E4F0024A7F1E8
:1024C0002006A04606F1100556F8241059B155F81B
:1024D0002400401C45F8240057F82420904202D3E1
:1024E00045F824808847641CE4B2042CECD3BDE892
:1024F000F0810000DC08002070B5324D0121284633
:1025000000F018F900285BD00121284600F093F86C
:102510002D4C216A491C2162A07810B9E0698142E2
:102520004ED30021284600F089F80020A0702178C1
:10253000012906D002290ED0032915D0042924D15F
:102540001BE0226A2169114444F24B6221619142ED
:102550001BD9226119E02269216A8A4202D3511AE9
:10256000216112E0206110E0226AE1681144174AFB
:10257000E160914209D9E26007E0E268216A8A429B
:1025800002D3511AE16000E0E060217909B9052128
:1025900021700121E17060700D4C80212046FEF712
:1025A00072FE61152046FEF76CFEA1142046FEF770
:1025B0006AFE2046BDE870404FF40041FEF761BE60
:1025C00070BD0000000400400C000020F4820100F7
:1025D0000004024010B5084C0121204600F0AAF882
:1025E000002807D00121204600F025F80348816823
:1025F000491C816010BD0000001000405800002000
:1026000010B5094C0121204600F094F800280AD0AA
:102610000121204600F00FF80448C068002802D0CD
:10262000BDE81040004710BD001400409C08002089
:10263000C94301827047C94301827047002901885C
:1026400002D041F0010101E021F001010180704759
:1026500010B5B0F1804F09D02E4988420DD101212B
:102660000220FFF7C3FA002102202DE001210846D5
:10267000FFF7BCFA0021012026E02749884206D155
:1026800001210420FFF7B2FA002104201CE02349B5
:10269000884206D101210820FFF7A8FA002108206E
:1026A00012E01F49884206D101211020FFF79EFA4F
:1026B0000021102008E01B49884209D10121202077
:1026C000FFF794FA00212020BDE81040FFF78EBAF2
:1026D0001549884206D101210420FFF79FFA002105
:1026E000042012E01149884206D101210820FFF799
:1026F00095FA0021082008E00D49884209D10121FE
:102700001020FFF78BFA00211020BDE81040FFF7E2
:1027100085BA10BD0004004000080040000C0040D5
:10272000001000400014004000080140000C01406F
:102730000010014002460020138A92890B4202EAEF
:10274000010202D0002A00D001207047002A8289AD
:1027500001D00A4300E08A438281704710B5028CA1
:1027600022F001020284028C038B0C8823F0730395
:102770001C4322F002030A891A434B884968134319
:1027800041630483038410BD028B22F008020A43D4
:102790000283704730B5028C22F010020284038C51
:1027A000028B0C7822F4E0454FF6FF7202EA042413
:1027B0002C4323F020050B8902EA03132B434D8899
:1027C000496802EA05121A4381630483028430BD1A
:1027D000028B4FF6FF7322F4006203EA01211143DA
:1027E000018370470288B0F1804F08D00F4B9842A8
:1027F00005D00F4B984202D00E4B984203D122F0E5
:1028000070034A881A430C4B984206D00B4B9842EF
:1028100003D022F440730A891A4302804A68C262D4
:102820000988018501218182704700000004004071
:1028300000080040000C0040001000400014004060
:10284000704700002DE9F04FFE48ADF5137D00788C
:1028500001287DD1FC4DFDA1FE482A88FDF791FCA1
:10286000002876D02A88FCA1FA48FDF78AFC4FF0B0
:10287000000A4FF0010B00286CD02A88F9A1F54816
:10288000FDF77FFC002866D02A88F9A1F148FDF702
:1028900078FC002879D02A88F8A1EE48FDF771FC71
:1028A000002873D02A88F6A1EA48FDF76AFC0028C0
:1028B000F7D02A88F3A1E748FDF763FCF34C4FF407
:1028C0008079E846002870D02A88F1A1E148FDF718
:1028D00058FC40AF002869D00722EFA1DD48FDF782
:1028E00050FCDC4E002876D00722EDA13046FDF7E3
:1028F00048FC002870D00722EBA13046FDF741FCD0
:1029000000286AD02A88EAA13046FDF73AFC002860
:102910007DD00822E9A13046FDF733FC03240028CE
:1029200076D00522E8A13046FDF72BFC002870D0B8
:102930000A22E7A13046FDF724FC00286AD02A8845
:10294000E6A13046FDF71DFC4FF48058E54F03E04B
:1029500086E30EE01BE02AE000287CD02A88E2A172
:102960003046FDF70EFC002876D03078FF2874D072
:102970002DE1DFA002F034F8E14C2046FEF724FA06
:102980000028FAD1FFF75AFD68E312E026E0DD4C9B
:10299000207838B1DCA002F023F884F800A0FDF71D
:1029A0009FFE5BE384F800B058E31AE03BE0E2A04E
:1029B00040E3E5A002F014F809242046FEF7BAFA35
:1029C000611CE7A002F00CF8641CA4B2402CF4D304
:1029D000FEF774FD42E348E060E079E0FFF736FB84
:1029E0003CE3E4A001F0FCFF0025474604EB052092
:1029F0004A466946FEF7BEFA0026E3A0B95D01F03B
:102A0000EFFF761CB6B2FF2EF7D9BCA003E06FE053
:102A10007EE0B2E0BAE001F0E3FF6D1CADB2102D34
:102A2000E4D3B6A006E3DAA001F0DAFF5FF0000617
:102A300004EB8610102240A9FEF7A6FA5FF000050D
:102A4000D8A057F8251001F0CBFF6D1CADB2102DAA
:102A5000F6D3AAA002E0A9E0ADE0B5E001F0C0FF26
:102A6000761CB6B2402EE3D3DBE72878C01FC1B294
:102A7000F01DFDF73BFE04EB80110C46CBA001F0EE
:102A8000AFFF002041460854401C80B24028FAD3D2
:102A9000204640226946FEF77FFADFE22878C01F11
:102AA000C1B2F01DFDF722FE04EB80110C46C4A05C
:102AB00001F096FF5FF0000047F82000401C80B254
:102AC0001028F9D32046102240A9FEF78DFAC5E25E
:102AD0002878C01FC1B2F01DFDF708FE054604EBC3
:102AE0008511BCA001F07CFF2846FEF723FAB5E271
:102AF000BCA001F075FF00242046FEF71BFA611C04
:102B000097A001F06DFF641CA4B2402CF4D3A5E2A1
:102B10002888C01F90FBF4F0C4B2B9A001F060FF98
:102B2000002580AF0EE000BF05EB45008119781944
:102B300022460831FFF7FAFB795D93A001F050FFC0
:102B40006D1CADB2A542EFD3214680A8FDF79FFED4
:102B5000C3B23B55641CE1B2020A7A54491CCCB2A0
:102B60001946ABA001F03CFF64A001F039FF2246FA
:102B700080A9AA4801F040F870E22878401FC1B24D
:102B8000701DFDF7B3FD0146A5A022E228780A38A2
:102B9000C1B230480A30FDF7A9FD04460146A4A0A1
:102BA00001F01EFF2046FEF73DFC57E2A5A001F014
:102BB00017FF414604E0A6A001F012FF4FF40051B8
:102BC0003846FEF762FB49E27078012833D00622CE
:102BD000A2A12048FDF7D5FA58B30522A1A11D48AE
:102BE000FDF7CFFA30B32A88A0A11A48FDF7C9FA39
:102BF000002821D02A88A0A11648FDF7C2FA002893
:102C00001BD02A889EA11348FDF7BBFA002815D0D7
:102C100004229DA10F48FDF7B4FA00280FD002222C
:102C20009BA10C48FDF7ADFA002809D030787E282A
:102C300030E13FE150E12FE1BDE1BFE1C5E1CBE192
:102C4000DEE100004A0000204E00002052455345BE
:102C500054000000CC00002054455354204D4F44F4
:102C600045000000506F77657244657465637400B9
:102C700045726173654C6F67000000006C6F670000
:102C80004C4F470052454144310000000000080805
:102C90005245414434000000575249544531200008
:102CA0005752495445342000457261736531200004
:102CB0004572617365416C6C000000003438354327
:102CC0006F6465200000000054494D45200000005D
:102CD0004B696C6C54696D65722000004750494F18
:102CE00031320000000402404750494F31330000A8
:102CF0000D0A20524553455420434D440D0A00000F
:102D000044600240000000200D0A204578697420CC
:102D1000646562756767696E67206D6F64652C20F6
:102D2000636F6D6D756E69636174696F6E20726536
:102D300073756D650D0A0000506F77657244657498
:102D40006563740D0A0000000D0A20457261736509
:102D500020454550524F4D20446174610D0A0000DA
:102D600020436C65617220256420426C6F636B0D9B
:102D70000A0000000D0A454550524F4D2052656132
:102D800064310D0A00000000253032582000000098
:102D90000D0A454550524F4D2052656164340D0A6D
:102DA0000000000025303858200000000D0A57525E
:102DB00049544531203A253038580D0A00000000AA
:102DC0000D0A575249544534203A253038580D0AD7
:102DD000000000000D0A4572617365203A25303805
:102DE000580D0A000D0A20457261736520416C6C14
:102DF00020454550524F4D20446174610D0A00003A
:102E000053656E642034383520436F64653A0000A2
:102E10002025303258202530325800000044004030
:102E2000205365742054696D653A25640D0A0000CD
:102E30004B696C6C2054696D6572204E756D3A2536
:102E4000640D0A004750494F31320D0A000000005E
:102E50004750494F31330D0A00000000504C555384
:102E600045200000544553542000000053686F77FC
:102E7000506C7573650000004175746F00000000B0
:102E80005374617475730000536574200000000072
:102E9000415400007ED0E1E0002406E0315DAFF255
:102EA000181001F09DFD641CA4B228888442F5D35B
:102EB0006DA0BFE02878801FC1B2B01DFDF716FCE1
:102EC0000446FFF757F8214669A001F089FD01216A
:102ED0006C48FFF7B3FBC1E030208DF844028DF859
:102EE00046A28DF847B28DF8454290A93C46384637
:102EF000FEF784F910212046FEF7C5F9202120466F
:102F0000FEF7C1F92878401FC1B2701DFDF7EEFB36
:102F1000054680212046FEF7B4F94FF4007A514669
:102F20002046FEF7B0F941462046FEF7AAF94FF4D5
:102F3000004841462046FEF7A6F940212046FEF70C
:102F4000A2F94FF400512046FEF79BF94E46494640
:102F50002046FEF796F94FF4804739462046FEF7A3
:102F600090F951462046FEF78EF941462046FEF77D
:102F70008AF9642001F0F2FC31462046FEF783F91D
:102F800039462046FEF77FF929463FA001F028FD8B
:102F900000260DE058E010212046FEF776F92021AA
:102FA0002046FEF772F9C82001F0D8FC761CB6B2B4
:102FB000AE42F0D352E0FEF701FF4FE037A0909908
:102FC00001F00EFDFEF7E0FA48E0FEF763F9014676
:102FD00035A001F005FD41E00421301DFDF786FB21
:102FE000054603213548FDF781FB04460246294684
:102FF00033A001F0F5FC21462846FEF755FB2DE0F5
:103000002E4933A0093901F0EBFC2C4930A00939D5
:1030100001F018FDFEF750F984B22F4D02E0287838
:1030200001280AD0FEF748F92146FDF728FC64285C
:10303000F5D32AA001F0D4FC10E02C4924A001F023
:10304000CFFCFDF787FC09E02888311811F8011C36
:10305000212903D10A2801D3FDF774FBFDF75AFC9F
:103060000DF5137DBDE8F08F0D0A0D0A000000007C
:10307000205365742050756C7365312025640D0AEA
:103080000000000000040040205465737420506C60
:103090007573652025640D0A0000000020417574D9
:1030A0006F2052756E0D0A00204D6F746F722053A1
:1030B00074617475733A25640D0A0000D500002010
:1030C000205365743A2025642025640D0A00000011
:1030D00025730D0A000000004C0000202041542000
:1030E0004E6F2041636B2E2E2E0D0A00EC03002044
:1030F0000548C178002905D00021C1700169C06868
:1031000000F00CBE704700000C0000202DE9F041DB
:103110002048214D007858B3214E204C08213068BA
:10312000206070686060308920812046FDF7AFFB29
:10313000217A627A01EB0221814205D12046FDF716
:103140007BFFE078287011E016A001F049FC002414
:10315000184F05E0315D18A001F042FC641CE4B298
:1031600038888442F6D316A001F03AFCFDF7E2FB62
:10317000FEF790F805280BD12878052808D00520FF
:10318000287000F007FDBDE8F0410EA001F028BC5A
:10319000BDE8F0814B00002008000020A0000020C6
:1031A0005C0200200D0A20435243206572726F7248
:1031B0003A20000050000020202530325800000046
:1031C0000D0A00002053746F702041636B0D0A00DC
:1031D00010B5FEF75FF80B4C2178884209D0FEF756
:1031E00059F8207005280AD041F28831064800F0CD
:1031F00085F8BDE8104002210448FEF746B84CF2BD
:103200005031F3E748000020D131000800000240AF
:1032100070B5114D00240F4B2A6809E004EB4406F9
:1032200053F826601EB1864201D1012070BD641C96
:103230009442F3D3541C142C0AD202EB420243F8FA
:10324000220003EB82004160002181602C60ECE7EA
:10325000002070BD140C0020640000202DE9F04116
:1032600000250D4C2F460D4E10E000BF05EB450329
:1032700004EB830081684A1C82604268914204D357
:10328000876054F8230000B180476D1C3068854288
:10329000ECD3BDE8F0810000140C00206400002095
:1032A00070B5154B0021134C1A681FE001EB410566
:1032B00054F82550CDB1854217D1132A0CD30DE017
:1032C00001EB410504EB8500491CC66844F8256004
:1032D00005694560456985609142F1D3521E1A60C7
:1032E000132A01D91320186070BD491C9142DDD307
:1032F00070BD0000140C00206400002030B50D4C9F
:1033000000220B4B24680FE002EB420553F82550D6
:103310004DB1854207D102EB420003EB80004160D2
:103320000021816030BD521CA242EDD330BD0000AF
:10333000140C0020640000202DE9FF410F464FF0DF
:10334000804490B320480025417891B90126467009
:1033500031463046FEF73EFC1C208DF80C008DF8FF
:103360000D5002208DF80E008DF80F6003A8FEF7B7
:103370001DFB47F6FF40ADF800000197ADF808507F
:10338000ADF8025069462046FFF72CFA012120468D
:10339000FFF74EF9012211462046FFF7D7F9012128
:1033A0002046FFF74BF9BDE8FF81FFE7002201212E
:1033B0002046FFF7CBF900212046FFF73FF92046D2
:1033C000FFF746F9EFE70000580000202DE9FF4124
:1033D000214C0F4690B321480025817891B90126F0
:1033E000867031460220FEF7F5FB1D208DF80C009B
:1033F0008DF80D5002208DF80E008DF80F6003A897
:10340000FEF7D4FA47F6FF40ADF800000197ADF89B
:103410000850ADF8025069462046FFF7E3F9012154
:103420002046FFF705F9012211462046FFF78EF9E5
:1034300001212046FFF702F9BDE8FF81FFE70022E6
:1034400001212046FFF782F900212046FFF7F6F818
:103450002046FFF7FDF8EFE7000400405800002089
:103460002DE9F04389B04FF47A784FF4FA790121CD
:103470000220FEF7AFFB01210320FEF79FFB1D207A
:103480008DF8180000258DF8195001248DF81A4088
:103490008DF81B4006A8FEF789FA30200226079017
:1034A0008DF820600320284F8DF8210007A93846A9
:1034B000FDF7A4FE022204213846FDF7D2FE0222C7
:1034C00005213846FDF7CDFE204821490068ADF8BA
:1034D0000C40B0FBF1F0ADF81450ADF80E5040F2D6
:1034E000CF701C4D049003A92846FFF77BF960209C
:1034F000ADF80000ADF80240CDF80480ADF80860EA
:1035000069462846FFF72AF908212846FFF73CF9C3
:10351000ADF8024069462846CDF80490FFF73AF925
:1035200008212846FFF754F900212846FFF786F8BE
:1035300001212846FFF77FF801212846FFF778F898
:1035400009B0BDE8F08300000004024068000020DC
:1035500000127A00000400402DE9FF41214C0F4683
:1035600090B321480025C17891B90126C670314633
:103570000420FEF72FFB1E208DF80C008DF80D5057
:1035800002208DF80E008DF80F6003A8FEF70EFAEA
:1035900047F6FF40ADF800000197ADF80850ADF8D0
:1035A000025069462046FFF71DF901212046FFF72A
:1035B0003FF8012211462046FFF7C8F801212046B6
:1035C000FFF73CF8BDE8FF81FFE70022012120461C
:1035D000FFF7BCF800212046FFF730F82046FFF740
:1035E00037F8EFE700080040580000202DE9FF41C0
:1035F000214C0F4690B321480025017991B901264D
:10360000067131461020FEF7E5FA2B208DF80C00EC
:103610008DF80D5002208DF80E008DF80F6003A874
:10362000FEF7C4F947F6FF40ADF800000197ADF88A
:103630000850ADF8025069462046FFF7D3F8012143
:103640002046FEF7F5FF012211462046FFF77EF8DF
:1036500001212046FEF7F2FFBDE8FF81FFE70022CF
:1036600001212046FFF772F800212046FEF7E6FF11
:103670002046FEF7EDFFEFE7001000405800002065
:103680002DE9FF41214C0F4690B321480025417997
:1036900091B90126467131462020FEF79BFA2C2075
:1036A0008DF80C008DF80D5002208DF80E008DF86D
:1036B0000F6003A8FEF77AF947F6FF40ADF8000067
:1036C0000197ADF80850ADF8025069462046FFF763
:1036D00089F801212046FEF7ABFF01221146204662
:1036E000FFF734F801212046FEF7A8FFBDE8FF816F
:1036F000FFE7002201212046FFF728F8002120469D
:10370000FEF79CFF2046FEF7A3FFEFE70014004002
:103710005800002009210120FFF768BF70B5054659
:10372000012186B00846FEF749FA01218803FEF719
:1037300069FA234E072209213046FDF792FD072240
:103740000A213046FDF78DFD7015009002208DF89E
:10375000040001208DF8050000248DF806408DF846
:10376000070069463046FDF749FD3015009069466F
:103770003046FDF743FDADF80C40ADF80E40ADF816
:103780001040ADF814400C200E4CADF8120002951C
:1037900002A9204600F07EF9012240F22441204691
:1037A00000F060F90121204600F024F9FDF76CFAE1
:1037B000FDF7EAF901210448FFF72AFD06B070BDC4
:1037C00000000240003801404528000810B5144CA4
:1037D00040F22441204600F026F901281FD120881C
:1037E000201D00880F4C00212046FDF741FA20469D
:1037F000FDF7EAFAC0F5C8700B4982B20B4B8A801C
:1038000000209854012008704FF4C8712046FDF73D
:103810000CFB2046BDE810400121FDF729BA10BD80
:1038200000380140586002404A000020CC000020CF
:1038300070B50546012186B00846FEF7BFF90121A3
:103840004804FEF7C7F9214E072202213046FDF752
:1038500008FD072203213046FDF703FD04200090F8
:1038600002208DF8040001208DF8050000248DF859
:1038700006408DF8070069463046FDF7BFFC08207A
:10388000009069463046FDF7B9FCADF80C40ADF844
:103890000E40ADF81040ADF814400C200C4CADF8C3
:1038A0001200029502A9204600F0F4F8012240F22D
:1038B0002441204600F0D6F8FDF7BAFAFDF798F952
:1038C0000121204600F096F806B070BD00000240CD
:1038D000004400402DE9F041124C0D4606462046BA
:1038E000FDF772FA0028FAD14FF000773846FDF75D
:1038F0006FFA012802D13846FDF7AEF900212046C3
:10390000FDF7B6F92A4631460748FCF70FFC294671
:103910002046FDF78AFA2046BDE8F0410121FDF777
:10392000A7B9000080600240500A002010B5144C76
:1039300040F22441204600F076F801281FD120886B
:10394000201D00880F4C00212046FDF791F92046EC
:10395000FDF73AFAC0F5C8700B4982B20B4BCA802A
:1039600000209854012048704FF4C8712046FDF79C
:103970005CFA2046BDE810400121FDF779B910BD81
:10398000004400406C6002404A0000205C020020BD
:1039900010B5144C40F22441204600F044F80128B0
:1039A0001FD12088201D00880F4C00212046FDF7E4
:1039B0005FF92046FDF708FAC0F596600B4982B220
:1039C0000B4B0A8100209854012088704FF49661B7
:1039D0002046FDF72AFA2046BDE810400121FDF7F8
:1039E00047B910BD00480040306002404A00002046
:1039F000EC0300200029818902D041F4005101E04C
:103A000021F4005181817047002A828A01D00A4343
:103A100000E08A43828270470246002012880A42F0
:103A200000D00120704730B501F01F0201240025AD
:103A3000C1F3421304FA02F2012B0FD0022B0FD074
:103A4000838A4FEA11210088134204FA01F400EA44
:103A5000040001D000B10125284630BD8389F0E77C
:103A6000038AEEE710B5C1F3421301F01F040121F0
:103A7000A140012B07D0022B07D01430002A026886
:103A800005D00A4304E00C30F8E71030F6E78A432B
:103A9000026010BD7FB50446008A0D4620F44051F7
:103AA000E88808432082A08941F20C618843A988F4
:103AB0002A8911436A8902431143A181A08A20F413
:103AC0004071A8890843A0826846FEF7B3F81948F8
:103AD000844201D1039800E00298A189090400EB17
:103AE000C00101EB0010296801D5490000E0890000
:103AF000B0FBF1F06422B0FBF2F109010B096FF0A9
:103B000018056B4300EB8300A3891D044FF03203BB
:103B100006D503EBC000B0FBF2F000F0070005E0B3
:103B200003EB0010B0FBF2F000F00F00084320811F
:103B30007FBD000000380140C1F30801818070475B
:103B40003EB50546FDF7ACFB0446FDF7AFFB002193
:103B50008DF8001006218DF8011005218DF8021056
:103B6000210A8DF804108DF80540010A8DF8061021
:103B70008DF807008DF8035008216846FCF787FE92
:103B80008DF80800000A8DF809000A216846FFF741
:103B9000A1FE3EBD3EB50446FDF782FB0546FDF79E
:103BA00085FB40F23112B0FBF2F24FF4C3710020FA
:103BB000B5FBF1F18DF8000003208DF80100052020
:103BC0008DF80200080A8DF804008DF80510100A1F
:103BD0008DF806008DF803408DF80720082168460F
:103BE000FCF755FE8DF80800000A8DF809000A213F
:103BF0006846FFF76FFE3EBD70B515460C4606469B
:103C00000AE080213046FFF707FF0028F9D014F8BA
:103C1000011B3046FFF790FF6D1EEDB2F1D270BD73
:103C2000F0B5002425464FF07E0E4FF07D0C212785
:103C300005E0465D7D2E07D016556D1C641C8D4237
:103C4000F7DB1C800120F0BD46197678512E0BD091
:103C50005D2E06D05E2E01D00020F0BD02F804E0FB
:103C600003E002F804C000E01755AD1CE6E7FDF7DD
:103C700051BB00004FF4E130FFF750FD044D05A0AB
:103C800000F07CF82C460220401CA042FCD3F6E752
:103C9000FFFF2F0055736167654661756C745F485F
:103CA000616E646C65720D0A0000000070B5054617
:103CB000FEF768F80446A0F54070E73802D10CA082
:103CC00000F08EFE0F48082200EBC4002946FDF7E5
:103CD00063F921460CA000F083FE641CA0B2B0F58D
:103CE000D77F00D90020BDE8704000F031B8000057
:103CF00020506F696E746572204164647220457251
:103D0000720D0A0080020808205772697465204C01
:103D10006F6720282564290D0A00000010B50A4CA1
:103D20000246A06800280DD040F8042F4160082109
:103D3000FCF79AFDA1680C22C870BDE8104003484A
:103D4000FDF72AB910BD00000C000020C0000808D3
:103D500010B5084C0146606820F8041F0221FCF7EA
:103D600083FD61680622C870BDE810400248FDF777
:103D700013B9000034000020400208080FB4054BBE
:103D800010B503A9044A029800F0ECF810BC5DF8E5
:103D900014FB0000914900085400002037B5144678
:103DA0000846064B6A46214600F03CFA044669463E
:103DB000002000F0CEFD20463EBD00005349000823
:103DC00002E008C8121F08C1002AFAD170477047E4
:103DD000002001E001C1121F002AFBD17047000042
:103DE0002DE9FF5F82B00021DDE90430020DDDF82E
:103DF00040B0034318D044F61050A2F2FF324243C1
:103E00001514119801281FD0A5EB0B00401C5FEA88
:103E1000000A4FF000064E4FDFF83891B04650468A
:103E200015D5CAF1000413E0119801244AA3012812
:103E300001D16FEA0B010298119AC0E90031C0E983
:103E4000024206B0BDE8F09FCBF10000DFE7044678
:103E50000021404A491842EB0450CDE9001012E01D
:103E6000E00707D032463B4640464946FCF786FA13
:103E70008046894632463B4610461946FCF77EFA94
:103E800006460F466410002CEAD1DDE90401DDE9A5
:103E90000023BAF1000F06DAFCF770FA42464B46EF
:103EA000FCF76CFA05E0FCF7DBFA42464B46FCF700
:103EB000D7FA04460E460022284BFCF759FB03D8DC
:103EC0004FF0FF30014607E00022254B20463146E7
:103ED000FCF7ADF9FCF733FB102409E0002C0ADBFA
:103EE0000A220023FCF772F9039B30321A55641E34
:103EF00050EA0102F2D1641C039AC4F11103144484
:103F0000119A012A03D0012208430DD10AE0084387
:103F100004D000204FF0110B119072E7A3EB0B05BA
:103F20006D1E0DE05B4504DD4FF0000205F101055B
:103F300004E003DA4FF00002A5F10105002AECD0FD
:103F400002981199C0E90231C0E9004579E7000003
:103F5000000014400000F03F300000000000F0437B
:103F60000000E03F2DE9FF4F8DB09B460F46044611
:103F7000002606E025280BD05A460F999047641C6E
:103F8000761C20780028F5D111B03046BDE8F08FBE
:103F90000025A8460122984900E0054314F8013F96
:103FA000203B02FA03F00842F7D120782E2817D1DF
:103FB00014F8010F45F004052A280ED06FF02F02E7
:103FC0002078A0F1300109290AD808EB880102EB1A
:103FD000410100EB0108641CF2E757F8048B641CF4
:103FE00020786C280DD004DC4C2812D06A2811D11E
:103FF00004E074280DD07A280CD10AE045F40015AD
:1040000007E0617845F48015814202D1641C05F512
:104010008015641C2278692A45D008DC002AB3D0B8
:10402000582A69D0632A10D0642A08D13BE0702A4C
:1040300067D0732A13D0752A5CD0782A5CD01046DA
:104040005A460F999047761CD3E017F8040B8DF869
:10405000000000208DF80100E946012003E057F838
:10406000049B4FF0FF3069074FF0000501D40AE0D0
:104070006D1C45450DDA8542FADB19F8051000295B
:10408000F6D106E06D1C8542FCDB19F8051000290D
:10409000F8D12E4404E019F8010B5A460F999047C5
:1040A0006D1EF8D2A5E00A200021CDE90801C5F374
:1040B000025002280DD001CFC117031E71F1000379
:1040C0000DDA4FF0000CD0EB0C006CEB01012D234E
:1040D00008E0FF1D27F00707F7E80201EDE72B05D1
:1040E00004D52B238DF8283001233BE0EB0739D092
:1040F0002023F7E70A2000E010200021CDE9080185
:1041000007E01020002145F00405CDE908014FF03B
:104110000808C5F3025002280FD001CF00214FF04C
:10412000000A2B071FD5702A0DD0DDE908C38CF0DB
:10413000100C5CEA030C0CD015E0FF1D27F00707FC
:10414000F7E80201EBE740228DF828204FF0010A42
:104150000BE050EA010306D030238DF828308DF8AB
:10416000292002239A46582A04D024A20DF12009BE
:104170000B9209E026A2F9E7DDE90823FCF726F80F
:104180000B9B9B5C09F8013D50EA0102F4D1ADEBB9
:10419000090020300890680701D44FF00108089901
:1041A000884502DDA8EB010000E0002080460025E4
:1041B00006E00AA85A46405D0F9990476D1C761C90
:1041C0005545F6DB04E030205A460F999047761C9F
:1041D000B8F10001A8F10108F5DC05E019F8010BC0
:1041E0005A460F999047761C0899481E0890002956
:1041F000F4DC641CC5E600000928010030313233CC
:104200003435363738396162636465660000000012
:1042100030313233343536373839414243444546FC
:10422000000000002DE9FF4F95B09B4689460646E9
:1042300000250FE2252877D100242746F84A0121DE
:10424000059400E0044316F8013F203B01FA03F017
:104250001042F7D130782A2811D06FF02F03307830
:10426000A0F13002092A16D8059A44F0020402EBA4
:10427000820203EB42021044761C0590EFE759F8E6
:10428000042B0592002A03DA504244F400540590AE
:1042900044F00204761C30782E2816D116F8010F4F
:1042A00044F004042A280DD06FF02F023078A0F1DA
:1042B0003003092B09D807EB870302EB4303C71828
:1042C000761CF3E759F8047B761C30786C280FD005
:1042D00006DC4C2817D068280DD06A2814D104E0D9
:1042E000742810D07A280FD10DE044F400140AE0AD
:1042F00044F4801401E044F440147278824202D104
:1043000004F58014761C761C307866280BD013DCFC
:10431000582877D009DC002875D04528F6D04628E3
:10432000F4D047281AD19DE118E0632835D06428DD
:1043300079D0652812D195E1702873D008DC672800
:10434000F1D069286FD06E280DD06F2806D1B5E066
:1043500073282CD0752875D0782874D05A461799B0
:1043600090476D1C75E1C4F30250022809D0032860
:104370000DD0D9F8001004280DD00D6009F1040902
:1043800067E1D9F80010EA17C1E90052F6E7D9F859
:1043900000100D80F2E70D70F0E719F8041B8DF89E
:1043A000001000208DF80100EA46012003E059F8D2
:1043B00004AB4FF0FF3061074FF0000102D40DE075
:1043C00008F101018846B9420FDA8045F8DB1AF896
:1043D00008100029F4D108E008F101018846814263
:1043E000FADB1AF808100029F6D105985B46A0EB15
:1043F000080721463846179A00F094FA284400EB43
:10440000080507E04DE029E10DE01AF8010B5A46D6
:1044100017999047B8F10108F7D25B462146384614
:10442000179A13E142E00A220092C4F302524FF0BD
:10443000000A022A08D059F804CB032A4FEAEC718B
:104440000AD00DE029E02AE009F1070121F0070276
:10445000F2E802C1914609E00FFA8CFC4FEAEC71D8
:10446000042A03D14FFA8CFC4FEAEC71002907DAD9
:104470000A460021DCF1000C61EB02012D2202E072
:10448000220504D52B228DF80420012203E0E20747
:1044900001D02022F7E7904659E00A2102E01022DD
:1044A0000DE010214FF0000A00910BE010224FF0B8
:1044B000000A44F004040827009203E008224FF0A9
:1044C000000A0092C4F30252022A05D059F804CB24
:1044D0000021032A08D009E009F1070121F00702B1
:1044E000F2E802C1914605E01FFA8CFC042A01D1D2
:1044F0000CF0FF0C4FF00008220728D5702806D0DA
:10450000009B83F0100353EA0A0305D00EE040221B
:104510008DF80420012208E05CEA010206D0302276
:104520008DF804208DF8050002229046009B83F050
:10453000080353EA0A030AD15CEA010201D16207C7
:1045400005D530228DF804204FF001087F1E582831
:1045500004D034A003900EA802900DE036A0F9E735
:1045600053466046009AFBF731FE84460398825C0E
:104570000298401E029002705CEA0100F0D102989D
:1045800006A9081A00F1200A600702D524F4803435
:1045900000E00127574502DDA7EB0A0000E00020FC
:1045A00000EB0A01009005984144401A0590E00391
:1045B00006D45B462146179A059800F0B3F90544E6
:1045C000002706E001A85A46C05D179990476D1C68
:1045D0007F1C4745F6DBE0030CD55B462146179A66
:1045E000059800F09FF9054404E030205A461799D9
:1045F00090476D1C0099481E00900029F5DC08E0EA
:10460000029802995A460078491C029117999047DE
:104610006D1CBAF10001AAF1010AF1DC65E10000AC
:104620000928010030313233343536373839616288
:10463000636465660000000030313233343536374C
:1046400038394142434445460000000000F058F923
:104650000544761C307800287FF4ECAD19B028466C
:10466000BDE8F08F620700D4062709F1070222F0A7
:10467000070CFCE80223E14603F000485FEA080C5F
:1046800002D00FF2702C0DE05FEA045C02D50FF24D
:10469000682C07E05FEAC47C02D00FF2602C01E0D6
:1046A000AFF2700C4FF0FF3823F00043CDF850C04C
:1046B00065280CD006DC452809D046281DD047289F
:1046C0003DD13DE0662818D067287ED138E0002132
:1046D000112F01DB112000E0781CCDE9000106A9B3
:1046E0000EA8FFF77DFBDDE90F010E9A0391002173
:1046F000009207F1010A04914DE04FF0004000974D
:10470000CDE9011006A90EA8FFF76AFBDDE90F024B
:1047100003920E9B11990022DDF80CA000930492E5
:1047200011B9791C00EB010AB7EB0A0004D4C0F1FF
:10473000FF3007F1010A0490AAEB0700019044E062
:10474000012F00DA01270021112F01DD112000E0E7
:104750003846CDE9000106A90EA8FFF741FBDDE9C7
:104760000F010E9A0391002104910092BA4621078D
:104770000CD40399514500DA8A46BAF1010F05DDE0
:10478000009AAAF10101515C302908D0B84202DA3E
:1047900010F1040F06DA0121CDE9011015E0AAF1AC
:1047A0000101E9E7002805DC049901440491AAEB22
:1047B000000102E0411C514500DD8A460499401A7F
:1047C000401C01904FF000400290200704D4019853
:1047D000504501DBCDF8048000208DF84F00029891
:1047E0000DF14F07B0F1004F25D02B200E9002980D
:1047F0004FF0020800280CDA404202902D200E9063
:1048000007E00A210298FBF7CBFC3031029007F851
:10481000011DB8F10001A8F10108F2DC029800289E
:10482000EFD1791E0E980870307800F0200040F02B
:10483000450007F8020D12A8C01B00F107081498E4
:10484000007800B1012000EB0A01019801EBE07152
:1048500005984144401A401E0590E00306D45B468B
:104860002146179A059800F05DF8054414980078E1
:1048700018B15A46179990476D1CE00324D55B4642
:104880002146179A059800F04DF805441CE004985D
:10489000002807DBDDE90301884203DD0098405C66
:1048A000179901E0179930205A469047049805F16E
:1048B0000105401C04900198401E019004D12E2057
:1048C0005A46179990476D1CBAF10001AAF1010AE6
:1048D000DDDC05E017F8010B5A46179990476D1C6F
:1048E000B8F10001A8F10108F4DC5B462146179AF3
:1048F0000598ABE62D0000002B0000002000000012
:104900002DE9F041044600251E461746880404D4CC
:1049100005E039462020B0476D1C641EF9D52846B5
:10492000BDE8F0812DE9F041044600251E46904681
:10493000C80301D5302700E02027880404D505E00E
:1049400041463846B0476D1C641EF9D52846BDE87F
:10495000F0810A68531C0B60107070470B4949883E
:10496000484381004FF0E0204161002282610169EB
:1049700041F0010101610169CB0701D0C903FAD5FA
:10498000016921F00101016182617047300000205E
:1049900004490A885206FCD5024AC1B2121D118090
:1049A0007047000000380140FDF7E4FCFEF756FCBC
:1049B000FCE7020EC0F30741C0F30723000600EB3B
:1049C000034000EB012010447047010A01EB002076
:1049D00080B27047A0F16101192900D820387047D2
:1049E0000FB470B5154C2046FCF7EEF90028FAD14B
:1049F0004FF400552846FCF7EBF9012802D1284670
:104A0000FCF72AF900212046FCF732F94FF4AF7188
:104A10000B48FBF7A4FB05AA09480499FFF7BEF968
:104A20000748FBF7A7FB81B22046FCF7FEF90121FE
:104A30002046FCF71DF970BC5DF814FB4460024091
:104A4000F00800200FB410B5124C2046FCF7BCF95A
:104A50000028FAD12020FCF7BBF9012802D1202040
:104A6000FCF7FAF800212046FCF702F903AA0A48ED
:104A70000299FFF793F90848FBF77CFB81B22046C7
:104A8000FCF7D3F901212046FCF7F2F810BC5DF8E1
:104A900014FB00001C600240E00B0020BC4A000830
:104AA00000000020A0000000C03D00085C4B000892
:104AB000A000002068140000D03D000800000000A5
:104AC00000000000050000000500000000000000DC
:104AD00000000000000000000000000000000000D6
:104AE00000000000000000000000000000000000C6
:104AF00000000000000000000000000000000000B6
:104B000000000000000000000000000000000000A5
:104B10000000000000000000000000000000000095
:104B2000000000000048E801030406080C101820EB
:104B30003000000000000000000102030406070826
:104B400009030406080C10182030000000000102C0
:0C4B50000304010203040607080900002A
:04000005080000F5FA
:00000001FF
